:100000000C9439000C94D7000C9400000C94000060
:100010000C9400000C9400000C9450010C9400000F
:100020000C9400000C9400000C9400000C94000050
:100030000C9400000C9400000C9400000C94000040
:100040000C9400000C9400000C9400000C94000030
:100050000C9400004572726F72000000000053752E
:10006000636365737300000080C002006001680074
:100070000000F894EE27ECBBF1E0FBBFEBBFE5BF5F
:100080008DE0A2E0BB27ED938A95E9F780E094E04C
:10009000A0E6ED930197E9F7EAE6F0E08591959106
:1000A000009761F0A591B59105901590BF01F00101
:1000B00005900D920197E1F7FB01F0CFEFE5EDBF61
:1000C000E4E0EEBFC0E6D1E00C9475011A939F9B6B
:1000D00006C09E9904C09D9B02C09C9B01C002C0AB
:1000E00010E362C09F9906C09E9904C09D9902C00A
:1000F0009C9901C002C011E357C09F9906C09E9908
:1001000004C09D9B02C09C9B01C002C012E34CC076
:100110009F9906C09E9904C09D9B02C09C9901C0F6
:1001200002C013E341C09F9906C09E9B04C09D99E5
:1001300002C09C9B01C002C014E336C09F9906C058
:100140009E9B04C09D9902C09C9901C002C015E30A
:100150002BC09F9906C09E9B04C09D9B02C09C9B88
:1001600001C002C016E320C09F9906C09E9B04C038
:100170009D9B02C09C9901C002C017E315C09F9BC4
:1001800006C09E9904C09D9902C09C9B01C002C0FC
:1001900018E30AC09F9B06C09E9904C09D9902C0A7
:1001A0009C9901C001C019E3E12F199108950A92A9
:1001B0001A92FA926A937A938A939A93AA93BA9329
:1001C000EA93FA93EFB7EA931A9380DF1E2FA12FD9
:1001D00002D1B19942C050D1EA5CFF4FDF01E12F5B
:1001E0000E94800249D1BF01EC5FFF4FDF010E94F6
:1001F0006C020E2EDB01AA5CBF4F0E946C02E01560
:1002000059F02A978AE0A0E0B0E0E4E5F0E00E942F
:10021000910237D1A99A14C02FD131960E94780249
:100220002BD10F0133D1E015F105B1F42A978AE003
:10023000A0E0B0E0EEE5F0E00E94910222D1AA9A9F
:10024000DE01DED0A8EEB3E00E945E02E5B3E0700E
:10025000E5BB21D1B6D02A9614C0A2E0B0E00E943E
:100260006802E130A0E0FA0761F410D1EC5FFF4FC3
:10027000DF01E12F0E94800209D131960E947802AD
:100280000AD11991E991EFBFF991E991B991A99139
:100290009991899179916991F9901990099018959E
:1002A0008A939A93AA93BA93EA93FA93EFB7EA934D
:1002B000A89AA2E0B0E00E946802309769F4A0E03A
:1002C000B0E0E0E0F0E00E947802E5D0A2E0B0E02B
:1002D000E1E0F0E00E947802E991EFBFF991E99145
:1002E000B991A991999189911895E0E0EABBEBBB8E
:1002F000E7BBE8BBE7E0E4BBE0E0E5BBE1BBE2BBBA
:10030000EFBDEFECEEBDE0E0EDBDECBDE7BDE6BD61
:10031000EBE5EBBDEDE8EABDE0E0E9BDE8BDE0E11D
:10032000E9BFEBB7E064EBBFE3E0E5BFE0E0E4BFCB
:10033000E0E4EABFA0E175D07894B998B19B03C01E
:10034000EDE0EEBD0FC0A2E0B0E0E0E0F0E00E9422
:100350007802E5B3E070E5BB34D0B19903C0E8E0C2
:10036000EEBDFBCFEBCFFFCFAA93EBB3EF70AE2F79
:10037000E881E07FEA2BEBBB84E18A95F1F7DA9A1A
:1003800084E18A95F1F7DA9884E18A95F1F772C0F1
:10039000AA93A881E9DFE881E295E883A881E4DFF8
:1003A00088EC8A95F1F766C0AA93E881F0E0E05AFC
:1003B000FE4FE081A981AE0FEBDF59804880229685
:1003C0000895A2E06FD0ACE0E3DFA1E06BD0E0E005
:1003D0004E2E5E2E0895AA93A881AA3011F05714CC
:1003E00048F0E0E0EA934394A42DDEDFA881AA3030
:1003F00009F440C05394D89AA881CADFD8983AC06B
:10040000BA93AA931A93A981BA81ED91A983BA8369
:100410001E2FE03019F0A12FDEDFF5CF18812396D3
:100420000895AA93EAB3E06FEABBD29AD09AD19A20
:10043000DA98D898D9987880E881E058E0936201FA
:10044000E881E054E0936301A4E1B0E00E945E0221
:100450002ED02DD02CD0A0E287DF8CE291E0019746
:10046000F1F7A8E295DFA4E093DFA5E891DFA6E02D
:100470008FDFA7DF21960895A8E6B0E00E9468020A
:100480000895A8ECB0E00E945E029BCFA0E0B0E02F
:100490000E9468020895A8E6B0E0E0E0F0E00E9463
:1004A0007802089575DFA3E0B0E00C945E02A0E34B
:1004B0005BDF8CE291E00197F1F70895109639F037
:1004C000A89588EB9BE00197F1F71197C9F708957C
:1004D000119602D0FE2F1197E199FECFFF93FFB73F
:1004E000F894AEBBBFBBE09AEDB3FFBFFF91089598
:1004F00007D01196EF93EF2F03D0EF911197089546
:10050000E19B02C0A895FCCF9FB7F894AEBBBFBBE0
:10051000E09A8DB3E81719F0EDBBE29AE19A9FBF1C
:100520000895AC0FBD1F05900D928A95E1F70895CF
:00000001FF
